{
	"data": {
		"bytecode": {
			"linkReferences": {},
			"object": "6060604052620f42a360005561044b6001556000600255341561001e57fe5b5b6102cc8061002e6000396000f300606060405236156100805763ffffffff7c01000000000000000000000000000000000000000000000000000000006000350416630489016f811461008257806317b3df08146100a35780631f10eadb146100c55780632c658aa2146100e757806388f0577d14610109578063e466aba214610137578063ffe8f0bf14610158575bfe5b341561008a57fe5b6100a1600160a060020a0360043516602435610186565b005b34156100ab57fe5b6100b36101ff565b60408051918252519081900360200190f35b34156100cd57fe5b6100b3610205565b60408051918252519081900360200190f35b34156100ef57fe5b6100b361020b565b60408051918252519081900360200190f35b341561011157fe5b6100b3600160a060020a0360043516610211565b60408051918252519081900360200190f35b341561013f57fe5b6100a1600160a060020a0360043516602435610230565b005b341561016057fe5b6100b3600160a060020a0360043516610281565b60408051918252519081900360200190f35b600081600054600254600154830201111515156101a35760006000fd5b600154600160a060020a038516600090815260036020526040902080549185029182019081905590925061044b905b600160a060020a0386166000908152600460205260409020919004905560028054830190555b5b50505050565b60005481565b60015481565b60025481565b600160a060020a0381166000908152600460205260409020545b919050565b600160a060020a038216600090815260036020526040902080548290039081905561044b905b600160a060020a038416600090815260046020526040902091900490556002805482900390555b5050565b600160a060020a0381166000908152600360205260409020545b9190505600a165627a7a72305820e865c2eb41e0220b48b6eb55adb9dcecb0c05e7b5b177018f16b9e5e4c2d0b160029",
			"opcodes": "PUSH1 0x60 PUSH1 0x40 MSTORE PUSH3 0xF42A3 PUSH1 0x0 SSTORE PUSH2 0x44B PUSH1 0x1 SSTORE PUSH1 0x0 PUSH1 0x2 SSTORE CALLVALUE ISZERO PUSH2 0x1E JUMPI INVALID JUMPDEST JUMPDEST PUSH2 0x2CC DUP1 PUSH2 0x2E PUSH1 0x0 CODECOPY PUSH1 0x0 RETURN STOP PUSH1 0x60 PUSH1 0x40 MSTORE CALLDATASIZE ISZERO PUSH2 0x80 JUMPI PUSH4 0xFFFFFFFF PUSH29 0x100000000000000000000000000000000000000000000000000000000 PUSH1 0x0 CALLDATALOAD DIV AND PUSH4 0x489016F DUP2 EQ PUSH2 0x82 JUMPI DUP1 PUSH4 0x17B3DF08 EQ PUSH2 0xA3 JUMPI DUP1 PUSH4 0x1F10EADB EQ PUSH2 0xC5 JUMPI DUP1 PUSH4 0x2C658AA2 EQ PUSH2 0xE7 JUMPI DUP1 PUSH4 0x88F0577D EQ PUSH2 0x109 JUMPI DUP1 PUSH4 0xE466ABA2 EQ PUSH2 0x137 JUMPI DUP1 PUSH4 0xFFE8F0BF EQ PUSH2 0x158 JUMPI JUMPDEST INVALID JUMPDEST CALLVALUE ISZERO PUSH2 0x8A JUMPI INVALID JUMPDEST PUSH2 0xA1 PUSH1 0x1 PUSH1 0xA0 PUSH1 0x2 EXP SUB PUSH1 0x4 CALLDATALOAD AND PUSH1 0x24 CALLDATALOAD PUSH2 0x186 JUMP JUMPDEST STOP JUMPDEST CALLVALUE ISZERO PUSH2 0xAB JUMPI INVALID JUMPDEST PUSH2 0xB3 PUSH2 0x1FF JUMP JUMPDEST PUSH1 0x40 DUP1 MLOAD SWAP2 DUP3 MSTORE MLOAD SWAP1 DUP2 SWAP1 SUB PUSH1 0x20 ADD SWAP1 RETURN JUMPDEST CALLVALUE ISZERO PUSH2 0xCD JUMPI INVALID JUMPDEST PUSH2 0xB3 PUSH2 0x205 JUMP JUMPDEST PUSH1 0x40 DUP1 MLOAD SWAP2 DUP3 MSTORE MLOAD SWAP1 DUP2 SWAP1 SUB PUSH1 0x20 ADD SWAP1 RETURN JUMPDEST CALLVALUE ISZERO PUSH2 0xEF JUMPI INVALID JUMPDEST PUSH2 0xB3 PUSH2 0x20B JUMP JUMPDEST PUSH1 0x40 DUP1 MLOAD SWAP2 DUP3 MSTORE MLOAD SWAP1 DUP2 SWAP1 SUB PUSH1 0x20 ADD SWAP1 RETURN JUMPDEST CALLVALUE ISZERO PUSH2 0x111 JUMPI INVALID JUMPDEST PUSH2 0xB3 PUSH1 0x1 PUSH1 0xA0 PUSH1 0x2 EXP SUB PUSH1 0x4 CALLDATALOAD AND PUSH2 0x211 JUMP JUMPDEST PUSH1 0x40 DUP1 MLOAD SWAP2 DUP3 MSTORE MLOAD SWAP1 DUP2 SWAP1 SUB PUSH1 0x20 ADD SWAP1 RETURN JUMPDEST CALLVALUE ISZERO PUSH2 0x13F JUMPI INVALID JUMPDEST PUSH2 0xA1 PUSH1 0x1 PUSH1 0xA0 PUSH1 0x2 EXP SUB PUSH1 0x4 CALLDATALOAD AND PUSH1 0x24 CALLDATALOAD PUSH2 0x230 JUMP JUMPDEST STOP JUMPDEST CALLVALUE ISZERO PUSH2 0x160 JUMPI INVALID JUMPDEST PUSH2 0xB3 PUSH1 0x1 PUSH1 0xA0 PUSH1 0x2 EXP SUB PUSH1 0x4 CALLDATALOAD AND PUSH2 0x281 JUMP JUMPDEST PUSH1 0x40 DUP1 MLOAD SWAP2 DUP3 MSTORE MLOAD SWAP1 DUP2 SWAP1 SUB PUSH1 0x20 ADD SWAP1 RETURN JUMPDEST PUSH1 0x0 DUP2 PUSH1 0x0 SLOAD PUSH1 0x2 SLOAD PUSH1 0x1 SLOAD DUP4 MUL ADD GT ISZERO ISZERO ISZERO PUSH2 0x1A3 JUMPI PUSH1 0x0 PUSH1 0x0 REVERT JUMPDEST PUSH1 0x1 SLOAD PUSH1 0x1 PUSH1 0xA0 PUSH1 0x2 EXP SUB DUP6 AND PUSH1 0x0 SWAP1 DUP2 MSTORE PUSH1 0x3 PUSH1 0x20 MSTORE PUSH1 0x40 SWAP1 SHA3 DUP1 SLOAD SWAP2 DUP6 MUL SWAP2 DUP3 ADD SWAP1 DUP2 SWAP1 SSTORE SWAP1 SWAP3 POP PUSH2 0x44B SWAP1 JUMPDEST PUSH1 0x1 PUSH1 0xA0 PUSH1 0x2 EXP SUB DUP7 AND PUSH1 0x0 SWAP1 DUP2 MSTORE PUSH1 0x4 PUSH1 0x20 MSTORE PUSH1 0x40 SWAP1 SHA3 SWAP2 SWAP1 DIV SWAP1 SSTORE PUSH1 0x2 DUP1 SLOAD DUP4 ADD SWAP1 SSTORE JUMPDEST JUMPDEST POP POP POP POP JUMP JUMPDEST PUSH1 0x0 SLOAD DUP2 JUMP JUMPDEST PUSH1 0x1 SLOAD DUP2 JUMP JUMPDEST PUSH1 0x2 SLOAD DUP2 JUMP JUMPDEST PUSH1 0x1 PUSH1 0xA0 PUSH1 0x2 EXP SUB DUP2 AND PUSH1 0x0 SWAP1 DUP2 MSTORE PUSH1 0x4 PUSH1 0x20 MSTORE PUSH1 0x40 SWAP1 SHA3 SLOAD JUMPDEST SWAP2 SWAP1 POP JUMP JUMPDEST PUSH1 0x1 PUSH1 0xA0 PUSH1 0x2 EXP SUB DUP3 AND PUSH1 0x0 SWAP1 DUP2 MSTORE PUSH1 0x3 PUSH1 0x20 MSTORE PUSH1 0x40 SWAP1 SHA3 DUP1 SLOAD DUP3 SWAP1 SUB SWAP1 DUP2 SWAP1 SSTORE PUSH2 0x44B SWAP1 JUMPDEST PUSH1 0x1 PUSH1 0xA0 PUSH1 0x2 EXP SUB DUP5 AND PUSH1 0x0 SWAP1 DUP2 MSTORE PUSH1 0x4 PUSH1 0x20 MSTORE PUSH1 0x40 SWAP1 SHA3 SWAP2 SWAP1 DIV SWAP1 SSTORE PUSH1 0x2 DUP1 SLOAD DUP3 SWAP1 SUB SWAP1 SSTORE JUMPDEST POP POP JUMP JUMPDEST PUSH1 0x1 PUSH1 0xA0 PUSH1 0x2 EXP SUB DUP2 AND PUSH1 0x0 SWAP1 DUP2 MSTORE PUSH1 0x3 PUSH1 0x20 MSTORE PUSH1 0x40 SWAP1 SHA3 SLOAD JUMPDEST SWAP2 SWAP1 POP JUMP STOP LOG1 PUSH6 0x627A7A723058 SHA3 0xe8 PUSH6 0xC2EB41E0220B 0x48 0xb6 0xeb SSTORE 0xad 0xb9 0xdc 0xec 0xb0 0xc0 0x5e PUSH28 0x5B177018F16B9E5E4C2D0B1600290000000000000000000000000000 "
		},
		"gasEstimates": {
			"creation": {
				"codeDepositCost": "143200",
				"executionCost": "45204",
				"totalCost": "188404"
			},
			"external": {
				"buy_lafranccoins(address,uint256)": "61844",
				"equity_in_USD(address)": "692",
				"equity_in_lafranccoins(address)": "736",
				"max_lafranccoins()": "395",
				"sell_lafranccoins(address,uint256)": "61078",
				"total_lafranccoins_bought()": "439",
				"usd_to_lafranccoins()": "417"
			}
		},
		"methodIdentifiers": {
			"buy_lafranccoins(address,uint256)": "0489016f",
			"equity_in_USD(address)": "88f0577d",
			"equity_in_lafranccoins(address)": "ffe8f0bf",
			"max_lafranccoins()": "17b3df08",
			"sell_lafranccoins(address,uint256)": "e466aba2",
			"total_lafranccoins_bought()": "2c658aa2",
			"usd_to_lafranccoins()": "1f10eadb"
		}
	},
	"abi": [
		{
			"constant": false,
			"inputs": [
				{
					"name": "investor",
					"type": "address"
				},
				{
					"name": "usd_invested",
					"type": "uint256"
				}
			],
			"name": "buy_lafranccoins",
			"outputs": [],
			"payable": false,
			"type": "function",
			"stateMutability": "nonpayable"
		},
		{
			"constant": true,
			"inputs": [],
			"name": "max_lafranccoins",
			"outputs": [
				{
					"name": "",
					"type": "uint256"
				}
			],
			"payable": false,
			"type": "function",
			"stateMutability": "view"
		},
		{
			"constant": true,
			"inputs": [],
			"name": "usd_to_lafranccoins",
			"outputs": [
				{
					"name": "",
					"type": "uint256"
				}
			],
			"payable": false,
			"type": "function",
			"stateMutability": "view"
		},
		{
			"constant": true,
			"inputs": [],
			"name": "total_lafranccoins_bought",
			"outputs": [
				{
					"name": "",
					"type": "uint256"
				}
			],
			"payable": false,
			"type": "function",
			"stateMutability": "view"
		},
		{
			"constant": true,
			"inputs": [
				{
					"name": "investor",
					"type": "address"
				}
			],
			"name": "equity_in_USD",
			"outputs": [
				{
					"name": "",
					"type": "uint256"
				}
			],
			"payable": false,
			"type": "function",
			"stateMutability": "view"
		},
		{
			"constant": false,
			"inputs": [
				{
					"name": "investor",
					"type": "address"
				},
				{
					"name": "lafranccoins_sold",
					"type": "uint256"
				}
			],
			"name": "sell_lafranccoins",
			"outputs": [],
			"payable": false,
			"type": "function",
			"stateMutability": "nonpayable"
		},
		{
			"constant": true,
			"inputs": [
				{
					"name": "investor",
					"type": "address"
				}
			],
			"name": "equity_in_lafranccoins",
			"outputs": [
				{
					"name": "",
					"type": "uint256"
				}
			],
			"payable": false,
			"type": "function",
			"stateMutability": "view"
		}
	]
}